:1000000075817075D000780079007A007B007C00E3
:100010007D007E007F00743812007C1200AD740EEB
:1000200012007C1200AD740112007C1200AD740647
:1000300012007C1200AD748212007C1200AD11AD72
:100040009000B68582437482117C11ADE4743A123B
:10005000008C1200AD7541C2754003E541117C1161
:10006000ADE493A88208600F12008C1200AD888264
:100070000541D540E680CF85438280DF12009DF5A3
:10008000A0C2B3C2B4D2B511ADC2B52212009DF563
:10009000A0D2B3C2B4D2B51200ADC2B522D2A7C2AB
:1000A000B3D2B4C2B511ADD2B520A7F7227D327C50
:1000B000FFDCFEDDFA2273617473756E6D6F6E7412
:0C00C00075657765647468756672690088
:00000001FF
