:1000000075817075D000780079007A007B007C00E3
:100010007D007E007F00743812007F1200B0740EE5
:1000200012007F1200B0740112007F1200B074063B
:1000300012007F1200B0748212007F1200B011B063
:100040009000B98582437482117F11B0E4743A1232
:10005000008F1200B07541C2754003E541117F1158
:10006000B0E4938582320532601012008F1200B026
:100070008532820541D540E380CC85438280DC1205
:1000800000A0F5A0C2B3C2B4D2B511B0C2B522125D
:1000900000A0F5A0D2B3C2B4D2B51200B0C2B5224E
:1000A000D2A7C2B3D2B4C2B511B0D2B520A7F7223D
:1000B0007D327CFFDCFEDDFA2273617473756E6D38
:0F00C0006F6E7475657765647468756672690034
:00000001FF
