:1000000075817075D000780079007A007B007C00E3
:100010007D007E007F007438120124120155740E99
:1000200012012412015574011201241201557406A3
:100030001201241201557482120124120155315506
:10004000748431243155E4743A1201341201557428
:100050008731243155E4743A12013412015590016C
:100060005E748231243155E493F590A882602912A0
:10007000013412015508900162748331243155E432
:1000800093A9826032B43408E590B4320302005E72
:10009000120134120155800302012190016274851E
:1000A00031243155E493B43602806BF5F0AA821204
:1000B0000134120155800302011C0A90016274860A
:1000C00031243155E493AB8260471201341201555B
:1000D00090016D748831243155E493B43602802B3D
:1000E000F5F0AE821201341201550E90016D748943
:1000F00031243155E493AF82600C12013412015562
:100100000F8F820200EE8E820200D30B8B820200E0
:10011000BE8A8202009E09898202007988820200DA
:100120006102005E120145F580C2B3C2B4D2B5319E
:1001300055C2B522120145F580D2B3C2B4D2B51270
:100140000155C2B522D287C2B3D2B4C2B53155D29D
:10015000B52087F7227D327CFFDCFEDDFA223031CC
:1001600032003031323334353637383900303132BD
:0801700033343536373839000D
:00000001FF
