:1000000075817075D000780079007A007B007C00E3
:100010007D007E007F007532007438120185120168
:10002000B6740E1201851201B67401120185120117
:10003000B674061201851201B6748212018512018E
:10004000B631B67484318531B6E4743A1201951232
:1000500001B67487318531B6E4743A120195120104
:10006000B69001E88582438582329001E87541C2ED
:10007000754003E541853282318531B6E49385824E
:1000800032053260651201951201B60541D540E393
:100090009001CE7482318531B6E493F530A8826048
:1000A000581201951201B6089001D274833185313E
:1000B000B6E493A9826061F531B43433E530B432EB
:1000C0002E9001E87541C2754003E54185328231C9
:1000D0008531B6E4938582320532600E12019512A5
:1000E00001B60541D540E302009085433280DBE54F
:1000F000311201951201B680030201829001D2747F
:1001000085318531B6E493B43602806BF5F0AA826E
:100110001201951201B6800302017D0A9001D2748A
:1001200086318531B6E493AB8260471201951201A6
:10013000B69001DD7488318531B6E493B43602801F
:100140002BF5F0AE821201951201B60E9001DD740E
:1001500089318531B6E493AF82600C1201951201AA
:10016000BF0F8F8202014F8E820201340B8B8202FD
:10017000011F8A820200FF0989820200AB88820285
:1001800000930200901201A6F580C2B3C2B4D2B5AA
:1001900031B6C2B5221201A6F580D2B3C2B4D2B52F
:1001A0001201B6C2B522D287C2B3D2B4C2B531B63B
:1001B000D2B52087F7227D327C64DCFEDDFA227521
:1001C000450A7DC87CE6DCFEDDFAD545F5223031F6
:1001D000320030313233343536373839003031324D
:1001E000333435363738390073617473756E6D6F1B
:0E01F0006E7475657765647468756672690073
:00000001FF
