:1000000075817075D000780079007A007B007C00E3
:100010007D007E007F007532007438120185120168
:10002000B6740E1201851201B67401120185120117
:10003000B674061201851201B6748212018512018E
:10004000B631B67484318531B6E4743A1201951232
:1000500001B67487318531B6E4743A120195120104
:10006000B69001D98582438582329001D97541C20B
:10007000754003E541853282318531B6E49385824E
:1000800032053260651201951201B60541D540E393
:100090009001BF7482318531B6E493F530A8826057
:1000A000581201951201B6089001C374833185314D
:1000B000B6E493A9826061F531B43433E530B432EB
:1000C0002E9001D97541C2754003E54185328231D8
:1000D0008531B6E4938582320532600E12019512A5
:1000E00001B60541D540E302009085433280DBE54F
:1000F000311201951201B680030201829001C3748E
:1001000085318531B6E493B43602806BF5F0AA826E
:100110001201951201B6800302017D0A9001C37499
:1001200086318531B6E493AB8260471201951201A6
:10013000B69001CE7488318531B6E493B43602802E
:100140002BF5F0AE821201951201B60E9001CE741D
:1001500089318531B6E493AF82600C1201951201AA
:10016000B60F8F8202014F8E820201340B8B820206
:10017000011F8A820200FF0989820200AB88820285
:1001800000930200901201A6F5A0C2B3C2B4D2B58A
:1001900031B6C2B5221201A6F5A0D2B3C2B4D2B50F
:1001A0001201B6C2B522D2A7C2B3D2B4C2B531B61B
:1001B000D2B520A7F7227D017C01DCFEDDFA2230DA
:1001C000313200303132333435363738390030315E
:1001D00032333435363738390073617473756E6D68
:0F01E0006F6E7475657765647468756672690013
:00000001FF
