:1000000075817075D0007438120208120239740EAE
:10001000120208120239740112020812023974061F
:10002000120208120239748212020812023951397E
:1000300078507C02740FF5B075B00FE5B0540FB472
:100040000FF65139E5B0540FB40F0280F55139E580
:10005000B0540FB40F0280EA75B0EFE5B0540FB49E
:100060000F1E75B0DFE5B0540FB40F1975B07FE502
:10007000B0540FB40F1475B0BFE5B0540FB40F0FE8
:10008000900281800D900285800890028D800390FF
:100090000289135003A380FAE493B49906740151C2
:1000A000085139F624305118513908B85686A850ED
:1000B000A951AA52AB53AE54AF557C007D007532A6
:1000C00000D290748451085139E4743A1202181223
:1000D0000239748751085139E4743A120218120235
:1000E0003990026B85824385823290026B7541C2E2
:1000F000754003E54185328251085139E493858288
:1001000032053260631202181202390541D540E30C
:10011000900251748251085139E4E893F530605EE1
:10012000120218120239089002557483510851398D
:10013000E4E9936067F531B43433E530B4322E909E
:10014000026B7541C2754003E54185328251085109
:1001500039E4938582320532600E12021812023998
:100160000541D540E302011085433280DBC2901285
:100170000242D290E53112021812023980030202C3
:1001800001900255748551085139E4EA93B436025E
:100190008064F5F012021812023980030201FC0A91
:1001A000900255748651085139E4EB936043120272
:1001B00018120239900260748851085139E4EE93A4
:1001C000B436028026F5F01202181202390E90029F
:1001D00060748951085139E4EF93600A12021812D1
:1001E00002420F0201CE7F000201B47E000B020129
:1001F000A07B000201817A00090201277900020137
:100200001079007800020110120229F5A0C291C2F3
:1002100092D2935139C29322120229F5A0D291C2EF
:1002200092D293120239C29322D2A7C291D292C221
:10023000935139D29320A7F7227D327C64DCFEDD16
:10024000FA2275450A7DC87CDCDCFEDDFAD545F571
:1002500022303132003031323334353637383900DC
:100260003031323334353637383900746875667258
:100270006973617473756E6D6F6E7475657765649F
:100280000007080949040506550102035499003D79
:010290002B42
:00000001FF
