:1000000075817075D0007438120206120237740EB2
:100010001202061202377401120206120237740627
:100020001202061202377482120206120237513788
:1000300078507C02740FF5B075B00FE5B0540FB472
:100040000FF65137E5B0540FB40F0280F55137E584
:10005000B0540FB40F0280EA75B0EFE5B0540FB49E
:100060000F1E75B0DFE5B0540FB40F1975B07FE502
:10007000B0540FB40F1475B0BFE5B0540FB40F0FE8
:10008000900287800D900283800890028B800390FD
:10009000027F135003A380FAE493B49906740151CC
:1000A00006513751165137F608B85688A850A9514D
:1000B000AA52AB53AE54AF557C007D00753200D2CE
:1000C000A0748451065137E4743A120216120237B2
:1000D000748751065137E4743A12021612023790AF
:1000E00002698582438582329002697541C27540FA
:1000F00003E54185328251065137E493858232050A
:100100003260631202161202370541D540E39002B5
:100110004F748251065137E4E893F530605E120265
:100120001612023708900253748351065137E4E9DE
:10013000936067F531B43433E530B4322E90026900
:100140007541C2754003E54185328251065137E45D
:10015000938582320532600E120216120237054173
:10016000D540E302010E85433280DBC2A01202407B
:10017000D2A0E53112021612023780030201FF906D
:100180000253748551065137E4EA93B43602806411
:10019000F5F012021612023780030201FA0A9002E9
:1001A00053748651065137E4EB93604312021612E2
:1001B000023790025E748851065137E4EE93B436EC
:1001C000028026F5F01202161202370E90025E74BB
:1001D0008951065137E4EF93600A12021612024069
:1001E0000F0201CC7F000201B27E000B02019E7B58
:1001F0000002017F7A0009020125790002010E79CF
:1002000000780002010E120227F580C2A5C2A6D214
:10021000A75137C2A722120227F580D2A5C2A6D2C3
:10022000A7120237C2A722D287C2A5D2A6C2A7515F
:1002300037D2A72087F7227D327C64DCFEDDFA22EC
:1002400075450A7DC87CDCDCFEDDFAD545F522303B
:1002500031320030313233343536373839003031CD
:1002600032333435363738390074687566726973DD
:10027000617473756E6D6F6E747565776564000774
:0F028000080949040506550102035499003D2B56
:00000001FF
